{
  "_format": "hh-sol-artifact-1",
  "contractName": "ComplexEscrow",
  "sourceName": "contracts/ComplexEscrow.sol",
  "abi": [
    {
      "inputs": [
        {
          "internalType": "address",
          "name": "_seller",
          "type": "address"
        },
        {
          "internalType": "address",
          "name": "_arbitrator",
          "type": "address"
        },
        {
          "internalType": "uint256",
          "name": "_feePercentage",
          "type": "uint256"
        },
        {
          "internalType": "uint256",
          "name": "_disputeTimeout",
          "type": "uint256"
        }
      ],
      "stateMutability": "payable",
      "type": "constructor"
    },
    {
      "anonymous": false,
      "inputs": [
        {
          "indexed": true,
          "internalType": "address",
          "name": "arbitrator",
          "type": "address"
        },
        {
          "indexed": false,
          "internalType": "enum ComplexEscrow.Resolution",
          "name": "decision",
          "type": "uint8"
        },
        {
          "indexed": false,
          "internalType": "uint256",
          "name": "timestamp",
          "type": "uint256"
        }
      ],
      "name": "ArbitratorDecision",
      "type": "event"
    },
    {
      "anonymous": false,
      "inputs": [
        {
          "indexed": true,
          "internalType": "address",
          "name": "buyer",
          "type": "address"
        },
        {
          "indexed": false,
          "internalType": "uint256",
          "name": "timestamp",
          "type": "uint256"
        }
      ],
      "name": "BuyerConfirmed",
      "type": "event"
    },
    {
      "anonymous": false,
      "inputs": [
        {
          "indexed": true,
          "internalType": "address",
          "name": "raisedBy",
          "type": "address"
        },
        {
          "indexed": false,
          "internalType": "uint256",
          "name": "timestamp",
          "type": "uint256"
        }
      ],
      "name": "DisputeRaised",
      "type": "event"
    },
    {
      "anonymous": false,
      "inputs": [
        {
          "indexed": true,
          "internalType": "address",
          "name": "receiver",
          "type": "address"
        },
        {
          "indexed": false,
          "internalType": "uint256",
          "name": "netAmount",
          "type": "uint256"
        },
        {
          "indexed": false,
          "internalType": "uint256",
          "name": "fee",
          "type": "uint256"
        },
        {
          "indexed": false,
          "internalType": "uint256",
          "name": "timestamp",
          "type": "uint256"
        }
      ],
      "name": "FundsReleased",
      "type": "event"
    },
    {
      "anonymous": false,
      "inputs": [
        {
          "indexed": true,
          "internalType": "address",
          "name": "seller",
          "type": "address"
        },
        {
          "indexed": false,
          "internalType": "uint256",
          "name": "releasedAmount",
          "type": "uint256"
        },
        {
          "indexed": false,
          "internalType": "uint256",
          "name": "fee",
          "type": "uint256"
        },
        {
          "indexed": false,
          "internalType": "uint256",
          "name": "remainingAmount",
          "type": "uint256"
        },
        {
          "indexed": false,
          "internalType": "uint256",
          "name": "timestamp",
          "type": "uint256"
        }
      ],
      "name": "PartialFundsReleased",
      "type": "event"
    },
    {
      "anonymous": false,
      "inputs": [
        {
          "indexed": true,
          "internalType": "address",
          "name": "buyer",
          "type": "address"
        },
        {
          "indexed": false,
          "internalType": "uint256",
          "name": "amount",
          "type": "uint256"
        },
        {
          "indexed": false,
          "internalType": "uint256",
          "name": "timestamp",
          "type": "uint256"
        }
      ],
      "name": "PaymentDeposited",
      "type": "event"
    },
    {
      "anonymous": false,
      "inputs": [
        {
          "indexed": true,
          "internalType": "address",
          "name": "buyer",
          "type": "address"
        },
        {
          "indexed": false,
          "internalType": "uint256",
          "name": "amount",
          "type": "uint256"
        },
        {
          "indexed": false,
          "internalType": "uint256",
          "name": "timestamp",
          "type": "uint256"
        }
      ],
      "name": "RefundIssued",
      "type": "event"
    },
    {
      "anonymous": false,
      "inputs": [
        {
          "indexed": true,
          "internalType": "address",
          "name": "seller",
          "type": "address"
        },
        {
          "indexed": false,
          "internalType": "uint256",
          "name": "timestamp",
          "type": "uint256"
        }
      ],
      "name": "SellerConfirmed",
      "type": "event"
    },
    {
      "stateMutability": "payable",
      "type": "fallback"
    },
    {
      "inputs": [],
      "name": "arbitrator",
      "outputs": [
        {
          "internalType": "address",
          "name": "",
          "type": "address"
        }
      ],
      "stateMutability": "view",
      "type": "function"
    },
    {
      "inputs": [],
      "name": "arbitratorDecided",
      "outputs": [
        {
          "internalType": "bool",
          "name": "",
          "type": "bool"
        }
      ],
      "stateMutability": "view",
      "type": "function"
    },
    {
      "inputs": [],
      "name": "buyer",
      "outputs": [
        {
          "internalType": "address",
          "name": "",
          "type": "address"
        }
      ],
      "stateMutability": "view",
      "type": "function"
    },
    {
      "inputs": [],
      "name": "buyerConfirmed",
      "outputs": [
        {
          "internalType": "bool",
          "name": "",
          "type": "bool"
        }
      ],
      "stateMutability": "view",
      "type": "function"
    },
    {
      "inputs": [],
      "name": "confirmPayment",
      "outputs": [],
      "stateMutability": "nonpayable",
      "type": "function"
    },
    {
      "inputs": [],
      "name": "confirmReceipt",
      "outputs": [],
      "stateMutability": "nonpayable",
      "type": "function"
    },
    {
      "inputs": [],
      "name": "createdAt",
      "outputs": [
        {
          "internalType": "uint256",
          "name": "",
          "type": "uint256"
        }
      ],
      "stateMutability": "view",
      "type": "function"
    },
    {
      "inputs": [],
      "name": "disputeRaised",
      "outputs": [
        {
          "internalType": "bool",
          "name": "",
          "type": "bool"
        }
      ],
      "stateMutability": "view",
      "type": "function"
    },
    {
      "inputs": [],
      "name": "disputeTimeout",
      "outputs": [
        {
          "internalType": "uint256",
          "name": "",
          "type": "uint256"
        }
      ],
      "stateMutability": "view",
      "type": "function"
    },
    {
      "inputs": [],
      "name": "feePercentage",
      "outputs": [
        {
          "internalType": "uint256",
          "name": "",
          "type": "uint256"
        }
      ],
      "stateMutability": "view",
      "type": "function"
    },
    {
      "inputs": [],
      "name": "fundsReleased",
      "outputs": [
        {
          "internalType": "bool",
          "name": "",
          "type": "bool"
        }
      ],
      "stateMutability": "view",
      "type": "function"
    },
    {
      "inputs": [],
      "name": "raiseDispute",
      "outputs": [],
      "stateMutability": "nonpayable",
      "type": "function"
    },
    {
      "inputs": [],
      "name": "refundDueToTimeout",
      "outputs": [],
      "stateMutability": "nonpayable",
      "type": "function"
    },
    {
      "inputs": [
        {
          "internalType": "uint256",
          "name": "partialAmount",
          "type": "uint256"
        }
      ],
      "name": "releasePartialFunds",
      "outputs": [],
      "stateMutability": "nonpayable",
      "type": "function"
    },
    {
      "inputs": [],
      "name": "resolution",
      "outputs": [
        {
          "internalType": "enum ComplexEscrow.Resolution",
          "name": "",
          "type": "uint8"
        }
      ],
      "stateMutability": "view",
      "type": "function"
    },
    {
      "inputs": [
        {
          "internalType": "uint8",
          "name": "decision",
          "type": "uint8"
        }
      ],
      "name": "resolveDispute",
      "outputs": [],
      "stateMutability": "nonpayable",
      "type": "function"
    },
    {
      "inputs": [],
      "name": "seller",
      "outputs": [
        {
          "internalType": "address",
          "name": "",
          "type": "address"
        }
      ],
      "stateMutability": "view",
      "type": "function"
    },
    {
      "inputs": [],
      "name": "sellerConfirmed",
      "outputs": [
        {
          "internalType": "bool",
          "name": "",
          "type": "bool"
        }
      ],
      "stateMutability": "view",
      "type": "function"
    },
    {
      "inputs": [],
      "name": "totalAmount",
      "outputs": [
        {
          "internalType": "uint256",
          "name": "",
          "type": "uint256"
        }
      ],
      "stateMutability": "view",
      "type": "function"
    },
    {
      "stateMutability": "payable",
      "type": "receive"
    }
  ],
  "bytecode": "0x608060405260405161261038038061261083398181016040528101906100259190610352565b60003411610068576040517f08c379a000000000000000000000000000000000000000000000000000000000815260040161005f90610416565b60405180910390fd5b61271082106100ac576040517f08c379a00000000000000000000000000000000000000000000000000000000081526004016100a3906104a8565b60405180910390fd5b336000806101000a81548173ffffffffffffffffffffffffffffffffffffffff021916908373ffffffffffffffffffffffffffffffffffffffff16021790555083600160006101000a81548173ffffffffffffffffffffffffffffffffffffffff021916908373ffffffffffffffffffffffffffffffffffffffff16021790555082600260006101000a81548173ffffffffffffffffffffffffffffffffffffffff021916908373ffffffffffffffffffffffffffffffffffffffff160217905550346003819055508160048190555042600581905550806006819055506000600760006101000a81548160ff0219169083151502179055506000600760016101000a81548160ff0219169083151502179055506000600760026101000a81548160ff0219169083151502179055506000600760036101000a81548160ff0219169083151502179055506000600760046101000a81548160ff0219169083151502179055506000600760056101000a81548160ff02191690836002811115610237576102366104c8565b5b021790555060008054906101000a900473ffffffffffffffffffffffffffffffffffffffff1673ffffffffffffffffffffffffffffffffffffffff167fc85c0d9a58a4bc900b972c884a28a2a319119d1c4f1ebc506265b5a26f8a68b36003546005546040516102a8929190610506565b60405180910390a25050505061052f565b600080fd5b600073ffffffffffffffffffffffffffffffffffffffff82169050919050565b60006102e9826102be565b9050919050565b6102f9816102de565b811461030457600080fd5b50565b600081519050610316816102f0565b92915050565b6000819050919050565b61032f8161031c565b811461033a57600080fd5b50565b60008151905061034c81610326565b92915050565b6000806000806080858703121561036c5761036b6102b9565b5b600061037a87828801610307565b945050602061038b87828801610307565b935050604061039c8782880161033d565b92505060606103ad8782880161033d565b91505092959194509250565b600082825260208201905092915050565b7f4465706f736974206d757374206265203e203000000000000000000000000000600082015250565b60006104006013836103b9565b915061040b826103ca565b602082019050919050565b6000602082019050818103600083015261042f816103f3565b9050919050565b7f466565206d757374206265206c657373207468616e203130302520696e20626160008201527f73697320706f696e747300000000000000000000000000000000000000000000602082015250565b6000610492602a836103b9565b915061049d82610436565b604082019050919050565b600060208201905081810360008301526104c181610485565b9050919050565b7f4e487b7100000000000000000000000000000000000000000000000000000000600052602160045260246000fd5b6105008161031c565b82525050565b600060408201905061051b60008301856104f7565b61052860208301846104f7565b9392505050565b6120d28061053e6000396000f3fe6080604052600436106101175760003560e01c80637150d8ae116100a0578063a001ecdd11610064578063a001ecdd14610398578063b564e926146103c3578063c04c22a4146103ee578063cf09e0d014610419578063f6cb6ea81461044457610157565b80637150d8ae146102d757806371e21495146103025780637a79575e1461032d5780637d94ad9814610358578063881f227c1461036f57610157565b806348a1335a116100e757806348a1335a1461023c5780635586e3fd1461026757806362ef1f811461027e5780636cc6cde1146102955780636daa2d44146102c057610157565b80624422eb1461019257806308551a53146101bd5780631a39d8ef146101e857806339ae75731461021357610157565b36610157576040517f08c379a000000000000000000000000000000000000000000000000000000000815260040161014e906116fd565b60405180910390fd5b6040517f08c379a00000000000000000000000000000000000000000000000000000000081526004016101899061178f565b60405180910390fd5b34801561019e57600080fd5b506101a761046f565b6040516101b491906117ca565b60405180910390f35b3480156101c957600080fd5b506101d2610482565b6040516101df9190611826565b60405180910390f35b3480156101f457600080fd5b506101fd6104a8565b60405161020a919061185a565b60405180910390f35b34801561021f57600080fd5b5061023a600480360381019061023591906118a6565b6104ae565b005b34801561024857600080fd5b50610251610782565b60405161025e91906117ca565b60405180910390f35b34801561027357600080fd5b5061027c610795565b005b34801561028a57600080fd5b50610293610a5c565b005b3480156102a157600080fd5b506102aa610c1d565b6040516102b79190611826565b60405180910390f35b3480156102cc57600080fd5b506102d5610c43565b005b3480156102e357600080fd5b506102ec610de4565b6040516102f99190611826565b60405180910390f35b34801561030e57600080fd5b50610317610e08565b604051610324919061194a565b60405180910390f35b34801561033957600080fd5b50610342610e1b565b60405161034f91906117ca565b60405180910390f35b34801561036457600080fd5b5061036d610e2e565b005b34801561037b57600080fd5b506103966004803603810190610391919061199e565b610ff3565b005b3480156103a457600080fd5b506103ad611285565b6040516103ba919061185a565b60405180910390f35b3480156103cf57600080fd5b506103d861128b565b6040516103e591906117ca565b60405180910390f35b3480156103fa57600080fd5b5061040361129e565b604051610410919061185a565b60405180910390f35b34801561042557600080fd5b5061042e6112a4565b60405161043b919061185a565b60405180910390f35b34801561045057600080fd5b506104596112aa565b60405161046691906117ca565b60405180910390f35b600760029054906101000a900460ff1681565b600160009054906101000a900473ffffffffffffffffffffffffffffffffffffffff1681565b60035481565b600260009054906101000a900473ffffffffffffffffffffffffffffffffffffffff1673ffffffffffffffffffffffffffffffffffffffff163373ffffffffffffffffffffffffffffffffffffffff161461053e576040517f08c379a000000000000000000000000000000000000000000000000000000000815260040161053590611a17565b60405180910390fd5b600760039054906101000a900460ff161561058e576040517f08c379a000000000000000000000000000000000000000000000000000000000815260040161058590611a83565b60405180910390fd5b600760029054906101000a900460ff166105dd576040517f08c379a00000000000000000000000000000000000000000000000000000000081526004016105d490611aef565b60405180910390fd5b6000811180156105ef57506003548111155b61062e576040517f08c379a000000000000000000000000000000000000000000000000000000000815260040161062590611b5b565b60405180910390fd5b6000612710600454836106419190611baa565b61064b9190611c1b565b90506000818361065b9190611c4c565b9050826003600082825461066f9190611c4c565b92505081905550600160009054906101000a900473ffffffffffffffffffffffffffffffffffffffff1673ffffffffffffffffffffffffffffffffffffffff166108fc829081150290604051600060405180830381858888f193505050501580156106de573d6000803e3d6000fd5b50600160009054906101000a900473ffffffffffffffffffffffffffffffffffffffff1673ffffffffffffffffffffffffffffffffffffffff167f1702cac8ec50e49d08c163d089c738cac78de804eb7f40e0fe6e8a2926aa205884846003544260405161074f9493929190611c80565b60405180910390a260006003540361077d576001600760036101000a81548160ff0219169083151502179055505b505050565b600760009054906101000a900460ff1681565b60008054906101000a900473ffffffffffffffffffffffffffffffffffffffff1673ffffffffffffffffffffffffffffffffffffffff163373ffffffffffffffffffffffffffffffffffffffff1614610823576040517f08c379a000000000000000000000000000000000000000000000000000000000815260040161081a90611d11565b60405180910390fd5b600760039054906101000a900460ff1615610873576040517f08c379a000000000000000000000000000000000000000000000000000000000815260040161086a90611a83565b60405180910390fd5b600760029054906101000a900460ff166108c2576040517f08c379a00000000000000000000000000000000000000000000000000000000081526004016108b990611aef565b60405180910390fd5b6006546005546108d29190611d31565b421015610914576040517f08c379a000000000000000000000000000000000000000000000000000000000815260040161090b90611db1565b60405180910390fd5b600760049054906101000a900460ff1615610964576040517f08c379a000000000000000000000000000000000000000000000000000000000815260040161095b90611e1d565b60405180910390fd5b6001600760036101000a81548160ff02191690831515021790555060008054906101000a900473ffffffffffffffffffffffffffffffffffffffff1673ffffffffffffffffffffffffffffffffffffffff166108fc6003549081150290604051600060405180830381858888f193505050501580156109e7573d6000803e3d6000fd5b5060008054906101000a900473ffffffffffffffffffffffffffffffffffffffff1673ffffffffffffffffffffffffffffffffffffffff167f93c496f36ecab5f5583f216646cac3acb12a63aeacddb1a9251ceb81f0ee36e760035442604051610a52929190611e3d565b60405180910390a2565b60008054906101000a900473ffffffffffffffffffffffffffffffffffffffff1673ffffffffffffffffffffffffffffffffffffffff163373ffffffffffffffffffffffffffffffffffffffff1614610aea576040517f08c379a0000000000000000000000000000000000000000000000000000000008152600401610ae190611d11565b60405180910390fd5b600760039054906101000a900460ff1615610b3a576040517f08c379a0000000000000000000000000000000000000000000000000000000008152600401610b3190611a83565b60405180910390fd5b600760029054906101000a900460ff1615610b8a576040517f08c379a0000000000000000000000000000000000000000000000000000000008152600401610b8190611eb2565b60405180910390fd5b6001600760006101000a81548160ff02191690831515021790555060008054906101000a900473ffffffffffffffffffffffffffffffffffffffff1673ffffffffffffffffffffffffffffffffffffffff167f253dc7da728ba73e554f473a0466012973accb631842f82c6dd18308cb039e1842604051610c0b919061185a565b60405180910390a2610c1b6112bd565b565b600260009054906101000a900473ffffffffffffffffffffffffffffffffffffffff1681565b600760039054906101000a900460ff1615610c93576040517f08c379a0000000000000000000000000000000000000000000000000000000008152600401610c8a90611a83565b60405180910390fd5b60008054906101000a900473ffffffffffffffffffffffffffffffffffffffff1673ffffffffffffffffffffffffffffffffffffffff163373ffffffffffffffffffffffffffffffffffffffff161480610d3a5750600160009054906101000a900473ffffffffffffffffffffffffffffffffffffffff1673ffffffffffffffffffffffffffffffffffffffff163373ffffffffffffffffffffffffffffffffffffffff16145b610d79576040517f08c379a0000000000000000000000000000000000000000000000000000000008152600401610d7090611f44565b60405180910390fd5b6001600760026101000a81548160ff0219169083151502179055503373ffffffffffffffffffffffffffffffffffffffff167fbd189a57edd98c9c61d4dd3cf0d28749a2cdda08f9bc354f8864830e0452082442604051610dda919061185a565b60405180910390a2565b60008054906101000a900473ffffffffffffffffffffffffffffffffffffffff1681565b600760059054906101000a900460ff1681565b600760049054906101000a900460ff1681565b600160009054906101000a900473ffffffffffffffffffffffffffffffffffffffff1673ffffffffffffffffffffffffffffffffffffffff163373ffffffffffffffffffffffffffffffffffffffff1614610ebe576040517f08c379a0000000000000000000000000000000000000000000000000000000008152600401610eb590611fb0565b60405180910390fd5b600760039054906101000a900460ff1615610f0e576040517f08c379a0000000000000000000000000000000000000000000000000000000008152600401610f0590611a83565b60405180910390fd5b600760029054906101000a900460ff1615610f5e576040517f08c379a0000000000000000000000000000000000000000000000000000000008152600401610f5590611eb2565b60405180910390fd5b6001600760016101000a81548160ff021916908315150217905550600160009054906101000a900473ffffffffffffffffffffffffffffffffffffffff1673ffffffffffffffffffffffffffffffffffffffff167f6369df28e80bfb3c5f2ba2c49b79a782349c2c660adaf5486d572c697ff367ed42604051610fe1919061185a565b60405180910390a2610ff16112bd565b565b600260009054906101000a900473ffffffffffffffffffffffffffffffffffffffff1673ffffffffffffffffffffffffffffffffffffffff163373ffffffffffffffffffffffffffffffffffffffff1614611083576040517f08c379a000000000000000000000000000000000000000000000000000000000815260040161107a90611a17565b60405180910390fd5b600760039054906101000a900460ff16156110d3576040517f08c379a00000000000000000000000000000000000000000000000000000000081526004016110ca90611a83565b60405180910390fd5b600760029054906101000a900460ff16611122576040517f08c379a000000000000000000000000000000000000000000000000000000000815260040161111990611aef565b60405180910390fd5b60016002811115611136576111356118d3565b5b60ff168160ff1614806111605750600280811115611157576111566118d3565b5b60ff168160ff16145b61119f576040517f08c379a00000000000000000000000000000000000000000000000000000000081526004016111969061201c565b60405180910390fd5b6001600760046101000a81548160ff0219169083151502179055508060ff1660028111156111d0576111cf6118d3565b5b600760056101000a81548160ff021916908360028111156111f4576111f36118d3565b5b0217905550600260009054906101000a900473ffffffffffffffffffffffffffffffffffffffff1673ffffffffffffffffffffffffffffffffffffffff167f3570899004bf3edd5f9b93371b3406404f634b8814307e52231adce7d92336ce600760059054906101000a900460ff164260405161127292919061203c565b60405180910390a261128261141a565b50565b60045481565b600760039054906101000a900460ff1681565b60065481565b60055481565b600760019054906101000a900460ff1681565b600760009054906101000a900460ff1680156112e55750600760019054906101000a900460ff165b15611418576001600760036101000a81548160ff021916908315150217905550600061271060045460035461131a9190611baa565b6113249190611c1b565b90506000816003546113369190611c4c565b9050600160009054906101000a900473ffffffffffffffffffffffffffffffffffffffff1673ffffffffffffffffffffffffffffffffffffffff166108fc829081150290604051600060405180830381858888f193505050501580156113a0573d6000803e3d6000fd5b50600160009054906101000a900473ffffffffffffffffffffffffffffffffffffffff1673ffffffffffffffffffffffffffffffffffffffff167f6b765b6a8c37aee50acf03a789f21db8104a257443a10a53a4ebce87ed6745b882844260405161140d93929190612065565b60405180910390a250505b565b6001600760036101000a81548160ff021916908315150217905550600280811115611448576114476118d3565b5b600760059054906101000a900460ff16600281111561146a576114696118d3565b5b036115865760006127106004546003546114849190611baa565b61148e9190611c1b565b90506000816003546114a09190611c4c565b9050600160009054906101000a900473ffffffffffffffffffffffffffffffffffffffff1673ffffffffffffffffffffffffffffffffffffffff166108fc829081150290604051600060405180830381858888f1935050505015801561150a573d6000803e3d6000fd5b50600160009054906101000a900473ffffffffffffffffffffffffffffffffffffffff1673ffffffffffffffffffffffffffffffffffffffff167f6b765b6a8c37aee50acf03a789f21db8104a257443a10a53a4ebce87ed6745b882844260405161157793929190612065565b60405180910390a2505061169e565b6001600281111561159a576115996118d3565b5b600760059054906101000a900460ff1660028111156115bc576115bb6118d3565b5b0361169d5760008054906101000a900473ffffffffffffffffffffffffffffffffffffffff1673ffffffffffffffffffffffffffffffffffffffff166108fc6003549081150290604051600060405180830381858888f19350505050158015611629573d6000803e3d6000fd5b5060008054906101000a900473ffffffffffffffffffffffffffffffffffffffff1673ffffffffffffffffffffffffffffffffffffffff167f93c496f36ecab5f5583f216646cac3acb12a63aeacddb1a9251ceb81f0ee36e760035442604051611694929190611e3d565b60405180910390a25b5b565b600082825260208201905092915050565b7f44697265637420455448206465706f73697473206e6f7420616c6c6f77656400600082015250565b60006116e7601f836116a0565b91506116f2826116b1565b602082019050919050565b60006020820190508181036000830152611716816116da565b9050919050565b7f5573652064657369676e617465642066756e6374696f6e7320666f722045544860008201527f207472616e736665720000000000000000000000000000000000000000000000602082015250565b60006117796029836116a0565b91506117848261171d565b604082019050919050565b600060208201905081810360008301526117a88161176c565b9050919050565b60008115159050919050565b6117c4816117af565b82525050565b60006020820190506117df60008301846117bb565b92915050565b600073ffffffffffffffffffffffffffffffffffffffff82169050919050565b6000611810826117e5565b9050919050565b61182081611805565b82525050565b600060208201905061183b6000830184611817565b92915050565b6000819050919050565b61185481611841565b82525050565b600060208201905061186f600083018461184b565b92915050565b600080fd5b61188381611841565b811461188e57600080fd5b50565b6000813590506118a08161187a565b92915050565b6000602082840312156118bc576118bb611875565b5b60006118ca84828501611891565b91505092915050565b7f4e487b7100000000000000000000000000000000000000000000000000000000600052602160045260246000fd5b60038110611913576119126118d3565b5b50565b600081905061192482611902565b919050565b600061193482611916565b9050919050565b61194481611929565b82525050565b600060208201905061195f600083018461193b565b92915050565b600060ff82169050919050565b61197b81611965565b811461198657600080fd5b50565b60008135905061199881611972565b92915050565b6000602082840312156119b4576119b3611875565b5b60006119c284828501611989565b91505092915050565b7f4f6e6c792061726269747261746f7220616c6c6f776564000000000000000000600082015250565b6000611a016017836116a0565b9150611a0c826119cb565b602082019050919050565b60006020820190508181036000830152611a30816119f4565b9050919050565b7f46756e647320616c72656164792072656c656173656400000000000000000000600082015250565b6000611a6d6016836116a0565b9150611a7882611a37565b602082019050919050565b60006020820190508181036000830152611a9c81611a60565b9050919050565b7f4e6f206469737075746520726169736564000000000000000000000000000000600082015250565b6000611ad96011836116a0565b9150611ae482611aa3565b602082019050919050565b60006020820190508181036000830152611b0881611acc565b9050919050565b7f496e76616c6964207061727469616c20616d6f756e7400000000000000000000600082015250565b6000611b456016836116a0565b9150611b5082611b0f565b602082019050919050565b60006020820190508181036000830152611b7481611b38565b9050919050565b7f4e487b7100000000000000000000000000000000000000000000000000000000600052601160045260246000fd5b6000611bb582611841565b9150611bc083611841565b9250828202611bce81611841565b91508282048414831517611be557611be4611b7b565b5b5092915050565b7f4e487b7100000000000000000000000000000000000000000000000000000000600052601260045260246000fd5b6000611c2682611841565b9150611c3183611841565b925082611c4157611c40611bec565b5b828204905092915050565b6000611c5782611841565b9150611c6283611841565b9250828203905081811115611c7a57611c79611b7b565b5b92915050565b6000608082019050611c95600083018761184b565b611ca2602083018661184b565b611caf604083018561184b565b611cbc606083018461184b565b95945050505050565b7f4f6e6c7920627579657220616c6c6f7765640000000000000000000000000000600082015250565b6000611cfb6012836116a0565b9150611d0682611cc5565b602082019050919050565b60006020820190508181036000830152611d2a81611cee565b9050919050565b6000611d3c82611841565b9150611d4783611841565b9250828201905080821115611d5f57611d5e611b7b565b5b92915050565b7f446973707574652074696d656f7574206e6f7420726561636865640000000000600082015250565b6000611d9b601b836116a0565b9150611da682611d65565b602082019050919050565b60006020820190508181036000830152611dca81611d8e565b9050919050565b7f41726269747261746f7220646563696465640000000000000000000000000000600082015250565b6000611e076012836116a0565b9150611e1282611dd1565b602082019050919050565b60006020820190508181036000830152611e3681611dfa565b9050919050565b6000604082019050611e52600083018561184b565b611e5f602083018461184b565b9392505050565b7f4469737075746520616c72656164792072616973656400000000000000000000600082015250565b6000611e9c6016836116a0565b9150611ea782611e66565b602082019050919050565b60006020820190508181036000830152611ecb81611e8f565b9050919050565b7f4f6e6c79206275796572206f722073656c6c65722063616e207261697365206460008201527f6973707574650000000000000000000000000000000000000000000000000000602082015250565b6000611f2e6026836116a0565b9150611f3982611ed2565b604082019050919050565b60006020820190508181036000830152611f5d81611f21565b9050919050565b7f4f6e6c792073656c6c657220616c6c6f77656400000000000000000000000000600082015250565b6000611f9a6013836116a0565b9150611fa582611f64565b602082019050919050565b60006020820190508181036000830152611fc981611f8d565b9050919050565b7f496e76616c6964206465636973696f6e00000000000000000000000000000000600082015250565b60006120066010836116a0565b915061201182611fd0565b602082019050919050565b6000602082019050818103600083015261203581611ff9565b9050919050565b6000604082019050612051600083018561193b565b61205e602083018461184b565b9392505050565b600060608201905061207a600083018661184b565b612087602083018561184b565b612094604083018461184b565b94935050505056fea26469706673582212209c331f9dfd93ccd669965219051797aff67435691822bf59b81675031ad2e23564736f6c634300081c0033",
  "linkReferences": {},
  "deployedLinkReferences": {}
}